:100000000C942D010C945E010C945E010C945E0125
:100010000C945E010C945E010C945E010C945E01E4
:100020000C945E010C945E010C945E010C945E01D4
:100030000C945E010C945E010C945E010C945E01C4
:100040000C945E010C945E010C945E010C945E01B4
:100050000C945E010C945E010C945E010C94F1040E
:100060000C945E010C9465050C943B050C945E01A8
:100070000C945E010C945E010C945E010C945E0184
:100080000C945E010C945E010C945E010C945E0174
:100090000C945E010C945E010C945E010C949B0523
:1000A0000C945E010C945E010C945E010C945E0154
:1000B0000C945E010C945E010C945E010C945E0144
:1000C0000C945E010C945E010C945E010C945E0134
:1000D0000C945E010C945E010C945E010C945E0124
:1000E0000C945E010C94C6010C9409040C94E0037A
:1000F0000C9465040C94CE010C94D4010C94B601BC
:100100000C9436040C94DC010C94AB010C94DF03CA
:100110000C9428030C94BC010C94AF010C94D801EE
:100120000C94EF030C9490010C9495020C944302F0
:100130000C94DB020C94E6010C94B3010C940204C1
:100140000C94CA010C94C0010C94E2010C9444027A
:100150000C9495010C94BF060C9445020C94A302D8
:100160000C9481020C94A7010C94720200002200EE
:10017000250028002B002E00310034000201000071
:10018000050108010B010505050507050808080814
:10019000020202020A0A080804040404010101011F
:1001A000010101010303030303030303040707071A
:1001B0000C0C0C0C0C0C0C0C0202020206060606BF
:1001C000060606060B0B0B0B0B0B0B0B010210208C
:1001D000200808102040102040800201020108047D
:1001E0000201010204081020408080402010080411
:1001F000020180040201804020100804020108046A
:1002000002010102040810204080010204081020AD
:10021000408000000A0B02090C0D0E0807030401C0
:1002200000000000000000000000000000000000CE
:10023000000000000000000000000000000012119B
:10024000100000000000000000000000000000009E
:100250000000000000000000BF0611241FBECFEF09
:10026000D1E2DEBFCDBF00E00CBF13E0A0E0B2E002
:10027000EEE3F2E100E00BBF02C007900D92A03068
:10028000B107D9F724E0A0E0B3E001C01D92AC367D
:10029000B207E1F711E0CDE2D1E000E006C021971E
:1002A0000109802FFE010E941509CC32D10780E0A0
:1002B0000807A9F70E94F8060C941D090C94000089
:1002C000282F30E0F901EE5EFD4F9491F901E453DF
:1002D000FE4F44912A573E4FF9012491222309F4FD
:1002E00035C0992311F191509231F8F4E92FF0E0E3
:1002F0008827E258FE4F8F4F0C941509AF01B301C8
:100300009001A701AB019501B601BC01C001C60176
:10031000CA01CE01D401D8019501DC01E201E60158
:10032000809180008F7780938000E22FF0E0EE0FC5
:10033000FF1FE459FE4FA591B4918FB7F894EC914B
:10034000611148C040954E234C938FBF0895809112
:1003500080008F7DE8CF80918000877FE4CF84B5D7
:100360008F7784BDE2CF84B58F7DFBCF8091B000C5
:100370008F778093B000D9CF8091B0008F7DF9CF77
:10038000809190008F7780939000CFCF80919000E4
:100390008F7DF9CF80919000877FF5CF8091A0006D
:1003A0008F778093A000C1CF8091A0008F7DF9CF7F
:1003B0008091A000877FF5CF809120018F77809377
:1003C0002001B3CF809120018F7DF9CF8091200152
:1003D000877FF5CF4E2BB8CF3FB7F8948091BF03FE
:1003E0009091C003A091C103B091C20326B5A89B10
:1003F00005C02F3F19F00196A11DB11D3FBFBA2FB7
:10040000A92F982F8827BC01CD01620F711D811D76
:10041000911D42E0660F771F881F991F4A95D1F7FB
:1004200008958F929F92AF92BF92CF92DF92EF92F8
:10043000FF924B015C010E94EC016B017C010E9468
:10044000EC016C197D098E099F09683E7340810596
:100450009105A8F321E0821A9108A108B10888EE5D
:10046000C80E83E0D81EE11CF11C81149104A10484
:10047000B10429F7FF90EF90DF90CF90BF90AF903D
:100480009F908F90089508950895AF92BF92CF9254
:10049000DF92EF92FF920F931F93CF93DF936C0144
:1004A0007B018B01040F151FEB015E01AE18BF0825
:1004B000C017D10759F06991D601ED91FC910190D7
:1004C000F081E02DC6011995892B79F7C501DF91DF
:1004D000CF911F910F91FF90EF90DF90CF90BF9041
:1004E000AF900895FC01538D448D252F30E0842F6B
:1004F00090E0821B930B541710F0CF96089501974C
:100500000895FC01918D828D981761F0A28DAE0F38
:10051000BF2FB11D5D968C91928D9F5F9F73928FBF
:1005200090E008958FEF9FEF0895FC01918D828DEB
:10053000981731F0828DE80FF11D858D90E00895B8
:100540008FEF9FEF0895FC01918D228D892F90E010
:10055000805C9F4F821B91098F739927089583ECCC
:1005600093E00E94A30221E0892B09F420E0822F6E
:100570000895FC01A48DA80FB92FB11DA35ABF4F38
:100580002C91848D90E001968F739927848FA68992
:10059000B7892C93A089B1898C91837080648C93E6
:1005A000938D848D981306C00288F389E02D808195
:1005B0008F7D80830895EF92FF920F931F93CF93C7
:1005C000DF93EC0181E0888F9B8D8C8D98131AC08E
:1005D000E889F989808185FF15C09FB7F894EE8975
:1005E000FF896083E889F9898081837080648083D2
:1005F0009FBF81E090E0DF91CF911F910F91FF901D
:10060000EF900895F62E0B8D10E00F5F1F4F0F73C4
:100610001127E02E8C8D8E110CC00FB607FCFACF7F
:10062000E889F989808185FFF5CFCE010E94B90262
:10063000F1CFEB8DEC0FFD2FF11DE35AFF4FF08250
:100640009FB7F8940B8FEA89FB8980818062CFCFB6
:10065000CF93DF93EC01888D8823B9F0AA89BB89F9
:10066000E889F9898C9185FD03C0808186FD0DC0E4
:100670000FB607FCF7CF8C9185FFF2CF808185FF05
:10068000EDCFCE010E94B902E9CFDF91CF9108955D
:1006900080E090E0892B29F00E94AF0281110E9436
:1006A000000080E090E0892B49F080E090E0892B09
:1006B00029F00E94000081110E94000080E090E07B
:1006C000892B49F080E090E0892B29F00E940000FE
:1006D00081110E94000080E090E0892B49F080E0C9
:1006E00090E0892B29F00E94000081110C940000F9
:1006F000089520914103260F3327331F21323105FE
:10070000ECF420919003FC0190E080E0243069F04B
:1007100082E00895A09141032191AC014F5D5C4FAF
:10072000A40FB52FB11D2C930196861798F38091D5
:100730004103680F6093410380E0089581E00895CC
:100740001092900381E080938F0310926A0361E01E
:1007500084E10E94600161E085E10E946001E9EBB3
:10076000F0E080818E7F808380818D7F808388E42C
:100770008093B80085E48093BC000895CF93DF9305
:1007800091E0909320038823B9F0C091B800D091F4
:10079000BA008091BC008A7B8093BC0060E084E159
:1007A0000E94600160E085E10E9460010E94A00358
:1007B000D093BA00C093B800DF91CF910895089507
:1007C000E091690380916803E81730F4F0E0E050AD
:1007D000FD4F808190E008958FEF9FEF08959091F5
:1007E0006903809168032FEF3FEF981748F4E92FD2
:1007F000F0E0E050FD4F208130E09F5F909369036F
:10080000C90108958091680390916903891B990B30
:100810000895CF92DF92EF92FF920F931F93CF93A1
:10082000DF937C01CB018A012091B903222389F057
:10083000EB016B01C40ED51ECC15DD0569F0699185
:10084000D701ED91FC910190F081E02DC701199540
:10085000F3CF642F0E947903C801DF91CF911F91DC
:100860000F91FF90EF90DF90CF900895CF93DF939B
:100870001F92CDB7DEB769832091B9032223F9F027
:100880002091B603203258F021E030E0FC013383A0
:10089000228390E080E00F90DF91CF9108958091C6
:1008A000B703E82FF0E0EA56FC4F998190838F5F01
:1008B0008093B7038093B60381E090E0ECCF61E0D2
:1008C000CE0101960E947903F7CF90E080E0089571
:1008D000FC0101900020E9F73197AF01481B590B4B
:1008E000BC0183EC93E00C9445028F929F92AF92EF
:1008F000BF920F931F93CF93DF93CDB7DEB7A1972E
:100900000FB6F894DEBF0FBECDBF19A2423008F477
:100910004AE08E010F5D1F4F842E912CB12CA12C2B
:10092000A50194010E94F308E62FB901CA01EA303B
:10093000F4F4E05DD801EE938D01232B242B252BBD
:1009400079F790E080E0109719F0CD010E946804DB
:10095000A1960FB6F894DEBF0FBECDBFDF91CF9149
:100960001F910F91BF90AF909F908F900895E95C79
:10097000E1CF85ED8093BC00809192039091930329
:10098000A0919403B09195030796A11DB11D23E09A
:10099000B695A795979587952A95D1F72091BC0094
:1009A00024FD03C01092900308954091920350914A
:1009B00093036091940370919503452B462B472B2D
:1009C00069F30097A105B10541F02AE22A95F1F7F4
:1009D00000C00197A109B109E1CF809191030C9466
:1009E000BE031F920F920FB60F9211242F933F93C5
:1009F0008F939F93AF93BF938091BB039091BC0360
:100A0000A091BD03B091BE033091BA0323E0230F40
:100A10002D3758F50196A11DB11D2093BA0380937F
:100A2000BB039093BC03A093BD03B093BE0380911E
:100A3000BF039091C003A091C103B091C20301967E
:100A4000A11DB11D8093BF039093C003A093C10368
:100A5000B093C203BF91AF919F918F913F912F911E
:100A60000F900FBE0F901F90189526E8230F029647
:100A7000A11DB11DD2CF1F920F920FB60F9211245C
:100A80000BB60F922F933F934F935F936F937F9388
:100A90008F939F93AF93BF93EF93FF9383EC93E078
:100AA0000E94B902FF91EF91BF91AF919F918F91F9
:100AB0007F916F915F914F913F912F910F900BBE5E
:100AC0000F900FBE0F901F9018951F920F920FB6A8
:100AD0000F9211240BB60F922F938F939F93EF9346
:100AE000FF93E091D303F091D4038081E091D90387
:100AF000F091DA0382FD1DC090818091DC038F5F4D
:100B00008F732091DD03821741F0E091DC03F0E068
:100B1000ED53FC4F958F8093DC03FF91EF919F91F4
:100B20008F912F910F900BBE0F900FBE0F901F90C3
:100B300018958081F2CF1F920F920FB60F92112459
:100B40000BB60F922F933F934F935F936F937F93C7
:100B50008F939F93AF93BF93EF93FF938091B900CF
:100B6000887F803609F44DC008F040C0883209F40F
:100B7000A9C028F5803109F49DC0C8F4882309F480
:100B8000FBC0883009F496C0FF91EF91BF91AF91FF
:100B90009F918F917F916F915F914F913F912F9195
:100BA0000F900BBE0F900FBE0F901F9018958831BD
:100BB00009F488C0803241F780938E0314C08034DA
:100BC00009F49DC040F48033B9F38833E9F680938B
:100BD0008E0385ECB0C0803509F485C0883509F4F2
:100BE00096C0883489F60E94B904CECF883909F4BA
:100BF0008CC038F5883729F050F4883611F08037EA
:100C000019F683E0809390031092630357C08838ED
:100C100009F47BC0803919F0803809F0B5CF809194
:100C20006303803208F071C0E091630381E08E0FAE
:100C3000809363038091BB00F0E0ED5BFC4F808309
:100C40003DC0803B39F0E0F4803A09F479C0883A3D
:100C500009F09ACF84E0809390031092420310929F
:100C60004103E0916603F091670319958091410378
:100C700081110FC081E0809341031092210309C0CC
:100C8000803C09F4A6CF883C09F4A3CF883B09F047
:100C90007BCFE091420381E08E0F80934203F0E02E
:100CA000EF5DFC4F80818093BB0090914203809167
:100CB000410329C080916B038093BB0085EC809336
:100CC000BC0062CF90918D0380918C03981758F5EA
:100CD000E0918D0381E08E0F80938D03F0E0E45965
:100CE000FC4F8081E9CFE0918D0381E08E0F8093EE
:100CF0008D038091BB00F0E0E459FC4F808390911C
:100D00008D0380918C039817C8F285E8D8CFE091C5
:100D10008D0381E08E0F80938D038091BB00F0E006
:100D2000E459FC4F808380918F0381115CCF81E077
:100D300080936A0384EA8093BC001092900324CFCE
:100D400085EC8093BC001092900380916303803205
:100D500030F4E0916303F0E0ED5BFC4F10826091B2
:100D6000630370E0E0916403F091650383E493E032
:100D700019951092630308CF10928E0334CFE3ECE1
:100D8000F3E01382128288EE93E0A0E0B0E0848367
:100D90009583A683B78324EA32E03183208325EC50
:100DA00030E03587248724EC30E03787268720EC35
:100DB00030E0318B208B21EC30E0338B228B22EC26
:100DC00030E0358B248B26EC30E0378B268B118E70
:100DD000128E138E148EE0E6F4E013821282848366
:100DE0009583A683B78386EB92E0918380830895F1
:100DF000789484B5826084BD84B5816084BD85B5F6
:100E0000826085BD85B5816085BD80916E00816001
:100E100080936E00109281008091810082608093A7
:100E200081008091810081608093810080918000A9
:100E30008160809380008091B10084608093B100D4
:100E40008091B00081608093B000809191008260B9
:100E500080939100809191008160809391008091B6
:100E600090008160809390008091A10082608093C7
:100E7000A1008091A10081608093A1008091A000D9
:100E800081608093A0008091210182608093210184
:100E900080912101816080932101809120018160F6
:100EA0008093200180917A00846080937A00809101
:100EB0007A00826080937A0080917A0081608093CA
:100EC0007A0080917A00806880937A001092C10045
:100ED00010926903109268031092B7031092B60340
:100EE0000E94A00383E492E09093670380936603DB
:100EF00084E492E09093650380936403E091D303CC
:100F0000F091D40382E08083E091CF03F091D0038D
:100F10001082E091D103F091D2038FEC8083109284
:100F2000DB03E091D703F091D80386E08083E09162
:100F3000D503F091D603808180618083E091D50351
:100F4000F091D603808188608083E091D503F09191
:100F5000D603808180688083E091D503F091D60329
:100F600080818F7D8083C12CD12C7601C39484EC49
:100F700092E00E9468044AE0C701B6010E9475042D
:100F80008AEC92E00E9468048FEFC81AD80AE80A37
:100F9000F80AE6E0CE16D104E104F10441F781ED50
:100FA00092E00E9468048BEE92E00E94680468EB75
:100FB0007BE080E090E00E941102D1E085EEA82E57
:100FC00095ECD92E22E0C22EBB24BA9400E012E0A8
:100FD0007801C8E08EEE92E00E946804F70141902B
:100FE00051907F01052C000C660877084AE0C30188
:100FF000B20177FE0DC06DE283EC93E00E94DB024C
:1010000066277727CB0164197509860997094AE095
:101010000E947504D093B903C093B8031092B7032C
:101020001092B603F70132976081718161587F4F4A
:1010300080E694E00E9436049090B603F0E2F91541
:1010400008F48EC00E94EC012B013C0180919003BA
:10105000811161C0C0929003D0938F03B0928E0330
:1010600010928D0390928C03E6E9F3E0ACE6B3E0D6
:10107000981290C010926B0390916B038C2F880F85
:10108000892B80936B0380916A03813009F086C0BD
:1010900010926A030E94EC012B013C0180916B03CA
:1010A0008093BB008091920390919303A09194034D
:1010B000B0919503892B8A2B8B2B99F00E94EC0120
:1010C00020919203309193034091940350919503A2
:1010D00064197509860997092617370748075907BC
:1010E000D8F18091BC0083FDD9CFD092BC000E9482
:1010F000EC012B013C0180919003823009F451C036
:1011000080918E038F3F61F180918E03803241F197
:1011100080918E0325C08091920390919303A091BA
:101120009403B0919503892B8A2B8B2B09F48ECFD6
:101130000E94EC012091920330919303409194031B
:101140005091950364197509860997092617370781
:101150004807590708F07ACF809191030E94BE0397
:101160001092B7031092B6031092B903CF5FCD303F
:1011700009F030CF065F1F4F82E0003A180709F0F0
:1011800027CF60E477E78BE190E00E9411020E9494
:1011900048031CCF91919D938F5F6ACFA092BC00B2
:1011A000A6CF8091920390919303A0919403B09164
:1011B0009503892B8A2B8B2B09F49DCF0E94EC0180
:1011C00020919203309193034091940350919503A1
:1011D00064197509860997092617370748075907BB
:1011E00008F089CFB9CFA1E21A2EAA1BBB1BFD01C3
:1011F0000DC0AA1FBB1FEE1FFF1FA217B307E407F6
:10120000F50720F0A21BB30BE40BF50B661F771F4D
:10121000881F991F1A9469F760957095809590952D
:101220009B01AC01BD01CF010895EE0FFF1F881F88
:0E1230008BBF0790F691E02D1994F894FFCF34
:10123E00E2FF00000000E2FF0000000000000000DE
:10124E00000000000000E2FFE2FF000000000000CE
:10125E000000000000000000000000000000000080
:10126E00E2FF00000000000000000000ECFF0000A4
:10127E00000000000000D8FFECFF0000000000009E
:10128E00C4FFD8FF00000000ECFFD8FFC4FFECFF46
:10129E000000D8FFECFFD8FFD8FFECFFC4FF000022
:1012AE00ECFFC4FFD8FFD8FF00000000D8FFC4FF3A
:1012BE00ECFF00000000ECFFD8FF00000000000073
:1012CE000000ECFF00000000000000000000000025
:1012DE0000000000DB02450272022803A302810215
:1012EE00950200000000360409046504DF030204C1
:1012FE00EF03E0034D6F746F72006C6973746F21AE
:10130E0000544F444F53204C4F53204D4F544F5287
:10131E004553204C4953544F5321000D0A0056613A
:10132E006C6F72206120656E766961723A200000E2
:00000001FF
