:100000000C9462000C948A000C948A000C948A0070
:100010000C948A000C948A000C948A000C948A0038
:100020000C948A000C948A000C948A000C948A0028
:100030000C948A000C948A000C948A000C948A0018
:100040000C94220A0C948A000C94920A0C946C0A68
:100050000C948A000C948A000C948A000C948A00F8
:100060000C94C40A0C948A000000000024002700AD
:100070002A0000000000250028002B0000000000DE
:1000800023002600290004040404040404040202DA
:100090000202020203030303030301020408102007
:1000A0004080010204081020010204081020000012
:1000B0000008000201000003040700000000000027
:1000C0000000E30B11241FBECFEFD8E0DEBFCDBF91
:1000D00011E0A0E0B1E0E8E6F5E202C005900D9283
:1000E000A23CB107D9F723E0A2ECB1E001C01D9218
:1000F000A236B207E1F710E0C2E6D0E004C02197D3
:10010000FE010E948711C136D107C9F70E94950CE4
:100110000C94B2120C940000833081F028F48130EA
:1001200099F08230A9F008958730A9F08830C9F09D
:100130008430B1F4809180008F7D03C08091800075
:100140008F7780938000089584B58F7784BD08955C
:1001500084B58F7DFBCF8091B0008F778093B00006
:1001600008958091B0008F7DF9CFCF93DF93EAEBB4
:10017000F0E08491E6EAF0E0D491E2E9F0E0C491A5
:10018000CC23A1F081110E948C00EC2FF0E0EE0F47
:10019000FF1FE458FF4FA591B491EC91ED2381E04E
:1001A00090E009F480E0DF91CF91089580E090E045
:1001B000FACF1F93CF93DF93282F30E0F901E25558
:1001C000FF4F8491F901E656FF4FD491F901EA57A8
:1001D000FF4FC491CC23A9F0162F81110E948C00EF
:1001E000EC2FF0E0EE0FFF1FEE58FF4FA591B491FA
:1001F0008FB7F894EC91111108C0D095DE23DC93F1
:100200008FBFDF91CF911F910895DE2BF8CFCF9351
:10021000DF9390E0FC01E656FF4F24918A579F4FF1
:10022000FC0184918823D1F090E0880F991FFC0194
:10023000E859FF4FA591B491FC01EE58FF4FC591CD
:10024000D491623071F49FB7F8943C91822F8095DD
:1002500083238C93E8812E2B28839FBFDF91CF913E
:1002600008958FB7F894EC912E2B2C938FBFF6CF77
:100270003FB7F8948091650290916602A091670261
:10028000B091680226B5A89B05C02F3F19F00196D2
:10029000A11DB11D3FBFBA2FA92F982F8827BC01E0
:1002A000CD01620F711D811D911D42E0660F771F08
:1002B000881F991F4A95D1F708958F929F92AF9208
:1002C000BF92CF92DF92EF92FF924B015C010E94AE
:1002D00038016B017C010E9438016C197D098E097F
:1002E0009F09683E734081059105A8F321E0821AB9
:1002F0009108A108B10888EEC80E83E0D81EE11C61
:10030000F11C81149104A104B10429F7FF90EF902E
:10031000DF90CF90BF90AF909F908F900895E09125
:100320005C02F0915D02309729F010925902109210
:10033000580209940895CF93DF93AC01E0915E02D7
:10034000F0915F023097F1F090915B0280915A0238
:100350009817C0F090E0292F30E02617370754F4A3
:10036000D901AC53BE4F240F351FE90128812C93CE
:100370009F5FF1CF10925B0260935A02CB01DF9135
:10038000CF910994DF91CF910895AF92BF92CF9210
:10039000DF92EF92FF920F931F93CF93DF936C0145
:1003A0007B018B01040F151FEB015E01AE18BF0826
:1003B000C017D10759F06991D601ED91FC910190D8
:1003C000F081E02DC6010995892B79F7C501DF91F0
:1003D000CF911F910F91FF90EF90DF90CF90BF9042
:1003E000AF900895FC01538D448D252F30E0842F6C
:1003F00090E0821B930B541710F0CF96089501974D
:100400000895FC01918D828D981761F0A28DAE0F39
:10041000BF2FB11D5D968C91928D9F5F9F73928FC0
:1004200090E008958FEF9FEF0895FC01918D828DEC
:10043000981731F0828DE80FF11D858D90E00895B9
:100440008FEF9FEF0895FC01918D228D892F90E011
:10045000805C9F4F821B91098F739927089589E6CD
:1004600092E00E94230221E0892B09F420E0822FF0
:10047000089580E090E0892B29F00E942F028111DD
:100480000C9400000895FC01A48DA80FB92FB11D94
:10049000A35ABF4F2C91848D90E001968F739927BA
:1004A000848FA689B7892C93A089B1898C91837098
:1004B00080648C93938D848D981306C00288F38991
:1004C000E02D80818F7D80830895EF92FF920F93BE
:1004D0001F93CF93DF93EC0181E0888F9B8D8C8DF0
:1004E00098131AC0E889F989808185FF15C09FB7E4
:1004F000F894EE89FF896083E889F98980818370A7
:10050000806480839FBF81E090E0DF91CF911F9155
:100510000F91FF90EF900895F62E0B8D10E00F5F76
:100520001F4F0F731127E02E8C8D8E110CC00FB64C
:1005300007FCFACFE889F989808185FFF5CFCE01E4
:100540000E944302F1CFEB8DEC0FFD2FF11DE35A1A
:10055000FF4FF0829FB7F8940B8FEA89FB89808167
:100560008062CFCFCF93DF93EC01888D8823B9F0E1
:10057000AA89BB89E889F9898C9185FD03C08081AE
:1005800086FD0DC00FB607FCF7CF8C9185FFF2CF2B
:10059000808185FFEDCFCE010E944302E9CFDF913C
:1005A000CF91089520910A02260F3327331F21325D
:1005B0003105ECF420912E02FC0190E080E0243023
:1005C00069F082E00895A0910A022191AC014651A0
:1005D0005E4FA40FB52FB11D2C930196861798F38B
:1005E00080910A02680F60930A0280E0089581E01A
:1005F000089510922E0281E08093300210922F0213
:1006000061E082E10E94D90061E083E10E94D900AB
:10061000E9EBF0E080818E7F808380818D7F808315
:1006200088E48093B80085E48093BC000895089521
:10063000E0915B0280915A02E81730F4F0E0EC534D
:10064000FE4F808190E008958FEF9FEF0895909185
:100650005B0280915A022FEF3FEF981748F4E92F81
:10066000F0E0EC53FE4F208130E09F5F90935B02FF
:10067000C901089580915A0290915B02891B990BE0
:100680000895CF93DF93CB01EA01642F0E94D20239
:10069000CE01DF91CF910895CF93DF931F92CDB715
:1006A000DEB7698361E0CE0101960E94D20281E04B
:1006B00090E00F90DF91CF91089590E080E0089551
:1006C000CF93DF93FC012781222359F1EC0161E0F4
:1006D00080850E94070161E089850E9407018F8162
:1006E000843011F08830B1F461E08A850E940701FE
:1006F00061E08B850E9407018FA58F3F91F061E03B
:100700000E9407016EA581E068278FA5DF91CF9138
:100710000C94D900833011F0863071F761E08A853E
:10072000E9CFDF91CF910895CF93DF93FC0127812B
:100730002223A9F0EC010190F081E02D0284F385E1
:10074000E02D60E009958FA58F3F49F061E00E94A0
:1007500007016EA58FA5DF91CF910C94D900DF9191
:10076000CF910895DC01ED91FC912285338547708E
:10077000552766277727415051096109710947308C
:1007800051056105710560F4FA01E753FC4F0C94C3
:100790008711D303D503D703D903DB03DD03DF03BD
:1007A00061E0F901099465E0FCCF64E0FACF66E00E
:1007B000F8CF62E0F6CF6AE0F4CF68E0F2CF69E00C
:1007C000F0CFCF93DF93EC01CB01BA0126E030E00C
:1007D00040E050E00E94830E623071058105910572
:1007E00089F16CF46115710581059105D1F06130D5
:1007F000710581059105F9F0DF91CF91089564307D
:1008000071058105910561F124F16530710581055E
:10081000910591F7E881F9810284F385E02D66E086
:1008200006C0E881F9810284F385E02D64E0CE0101
:10083000DF91CF910994E881F9810284F385E02D5D
:1008400065E0F5CFE881F9810284F385E02D61E070
:10085000EECFE881F9810284F385E02D63E0E7CFF4
:10086000E881F9810284F385E02D62E0E0CFDC01CC
:10087000ED91FC910284F385E02D437055276627A6
:100880007727423051056105710571F043305105FC
:100890006105710559F0413051056105710511F08F
:1008A00065E0099466E0FDCF6AE0FBCF69E0F9CF2F
:1008B000CF93DF93EC01CB01BA0123E030E040E0BD
:1008C00050E00E94830E613071058105910599F019
:1008D0006230710581059105A9F0672B682B692BA2
:1008E000C1F4E881F9810284F385E02D64E0CE0152
:1008F000DF91CF910994E881F9810284F385E02D9D
:1009000061E0F5CFE881F9810284F385E02D62E0B2
:10091000EECFDF91CF910895DC01ED91FC9102843F
:10092000F385E02D43705527662777274230510520
:100930006105710571F0433051056105710559F08C
:10094000413051056105710511F062E0099463E0E1
:10095000FDCF61E0FBCF60E0F9CFCF93DF93EC01F7
:10096000E881F9810284F385E02D8A8160E08111BC
:1009700062E0CE010995E881F9810284F385E02DDA
:100980008A8161E0811163E0CE0109958CA59DA566
:100990008230910538F0880F991F880F991F0597AD
:1009A0000197F1F7E881F9810284F385E02D8A81CE
:1009B00060E0811162E0CE01DF91CF910994CF9385
:1009C000DF93EC0120E030E0A901688D798D8A8DFC
:1009D0009B8D0E94AA1018162CF4E8A9F9A9DF91A2
:1009E000CF910994EAA9FBA9FACFCF92DF92EF92B7
:1009F000FF920F931F93CF93DF93DC011796CC9157
:100A0000C43039F0C83059F1C33019F0C63049F15B
:100A1000C2E08C01085F1F4FF12CE12CC62ED12CB7
:100A2000D1E0F8016481C6010E2C02C0959587952E
:100A30000A94E2F780FD6D270F5F1F4F80810E94AF
:100A4000D900BFEFEB1AFB0AEC1658F3DF91CF91F8
:100A50001F910F91FF90EF90DF90CF900895C4E029
:100A6000D8CFC3E0D6CFDC011796EC911797E930C9
:100A700008F038C0F0E0E15CFA4F0C9487114805AB
:100A80004E0554055A0560057205660572056C052C
:100A9000ED91FC910684F785E02D0994ED91FC9190
:100AA0000088F189E02DF9CFED91FC910288F3895E
:100AB000E02DF3CFED91FC910488F589E02DEDCF89
:100AC000ED91FC910688F789E02DE7CFED91FC913F
:100AD000008CF18DE02DE1CFED91FC91028CF38D36
:100AE000E02DDBCF08954F925F926F927F928F92AD
:100AF0009F92AF92BF92CF92DF92EF92FF920F93AD
:100B00001F93CF93DF93EC01CC88DD88EE88FF88BC
:100B100088899989AA89BB89C81AD90AEA0AFB0A6D
:100B2000688D798D8A8D9B8D9B01AC010E94AF10E1
:100B30004B015C0168A179A18AA19BA19B01AC0139
:100B40000E94DF0E9B01AC01C501B4010E94500F51
:100B50000E94C20FC114D104E104F10409F0B6C02F
:100B600062307105810591050CF0D0C01B821C829A
:100B70001D821E82188E198E1A8E1B8E1CAA1DAA0B
:100B80001EAA1FAAC12CD12C7601C701B601DF9184
:100B9000CF911F910F91FF90EF90DF90CF90BF907A
:100BA000AF909F908F907F906F905F904F9008953F
:100BB0001016110612061306B4F46C157D058E0589
:100BC0009F051CF42A812111A1C09B01AC0188273B
:100BD0009927DC01821B930BA40BB50B8CAB9DAB4F
:100BE000AEABBFAB93C0011511052105310509F46A
:100BF0008DC06C157D058E059F050CF087C08A8120
:100C0000882309F483C030952095109501951F4FD6
:100C10002F4F3F4F0CAB1DAB2EAB3FAB77C0011539
:100C200011052105310509F471C088249924540166
:100C30008C189D08AE08BF08681579058A059B05C4
:100C40000CF064C08A81811161C0DDCFCCACDDAC19
:100C5000EEACFFACA7019601C701B6010E94DF0E02
:100C60002B013C01C501B4010E94FA0F20E030E0E5
:100C700040E850E40E94AF1020E030E040E85FE33D
:100C80000E94DF0E9B01AC01C301B2010E94500F14
:100C90009B01AC01C701B6010E94DE0E3B016C0155
:100CA000FE01E05CFF4FE080F1800281138197013B
:100CB000A8010E94AA10181614F473018601C70136
:100CC000D8018CAF9DAFAEAFBFAF3AC00CA91DA984
:100CD0002EA93FA91C141D041E041F040CF468CF88
:100CE00010161106120613060CF099CF00271127D3
:100CF00098010C191D092E093F0960177107820719
:100D000093070CF062CF2A8121115FCF8CA89DA898
:100D1000AEA8BFA881149104A104B10409F096CF34
:100D200088AD99ADAAADBBAD8CAF9DAFAEAFBFAF37
:100D300081E01C141D041E041F040CF080E08A8353
:100D40003FEF831A930AA30AB30A8CAA9DAAAEAAFC
:100D5000BFAA8CAC9DACAEACBFACC501B4010E94C7
:100D6000C90F6B017C01CB82DC82ED82FE82A50182
:100D7000940160E074E284E799E40E94500F688F68
:100D8000798F8A8F9B8F2A812111FFCE9058688F8F
:100D9000798F8A8F9B8FF9CECF92DF92EF92FF925D
:100DA0006B017C0120E030E0A9010E944B0F87FF1E
:100DB00004C0F7FAF094F7F8F094A7019601609157
:100DC00036037091370380913803909139030E9464
:100DD0004B0F882309F457C0C0923603D0923703D3
:100DE000E0923803F0923903A701960160E074E2C3
:100DF00084E799E40E94500F60935A0370935B0359
:100E000080935C0390935D0380914E0390914F0318
:100E1000A0915003B0915103181619061A061B062B
:100E200094F5609132037091330380913403909173
:100E300035039B01AC010E94AF106B017C016091F6
:100E40003A0370913B0380913C0390913D039B01D9
:100E5000AC010E94DF0E9B01AC01C701B6010E94EC
:100E6000500F0E94C20F60934E0370934F03809304
:100E70005003909351038AE193E0FF90EF90DF904D
:100E8000CF900C947305FF90EF90DF90CF90089572
:100E9000CF92DF92EF92FF9280911D0390911E03FB
:100EA000A0911F03B0912003892B8A2B8B2B09F46F
:100EB0004FC00E9438016B017C01809142039091E8
:100EC0004303A0914403B0914503B701A601481B19
:100ED000590B6A0B7B0B80911D0390911E03A0910F
:100EE0001F03B0912003481759076A077B0780F159
:100EF00080912A0390912B03A0912C03B0912D0394
:100F000020911C03222309F44EC00196A11DB11D9E
:100F100080932A0390932B03A0932C03B0932D036B
:100F200040912A0350912B0360912C0370912D0363
:100F30008AE193E00E943305C0924203D0924303BA
:100F4000E0924403F09245038AE193E00E94730526
:100F500020E030E0A9016091320370913303809169
:100F60003403909135030E944B0F811120C081E022
:100F7000C0902E03D0902F03E0903003F090310307
:100F800040912A0350912B0360912C0370912D0303
:100F9000C416D506E606F70609F480E0FF90EF9048
:100FA000DF90CF9008950197A109B109B1CF81E0F9
:100FB000F5CF0F931F9300912E0310912F032091D3
:100FC000300330913103601771078207930761F096
:100FD00060932E0370932F0380933003909331031B
:100FE0008AE193E00E9473050E9448078111FCCFBB
:100FF0001F910F91089508954F925F926F927F9283
:101000008F929F92AF92BF92CF92DF92EF92FF9218
:101010006B017C0120E030E0A9010E944B0F87FFAB
:1010200004C0F7FAF094F7F8F09480903A039090A7
:101030003B03A0903C03B0903D03A7019601C5017E
:10104000B4010E944B0F882309F458C060914E03ED
:1010500070914F0380915003909151030E94FA0FB9
:101060002B013C01A7019601C501B4010E94500F5C
:101070009B01AC01C301B2010E94AF100E94C20FDC
:1010800060934E0370934F038093500390935103EA
:10109000A701960160E070E080E090E40E94500FAC
:1010A0000E94221126E53EE04DE25FE30E94AF1070
:1010B00020E034E244E759E40E94AF106093520309
:1010C000709353038093540390935503C0923A0353
:1010D000D0923B03E0923C03F0923D038AE193E01F
:1010E000FF90EF90DF90CF90BF90AF909F908F9048
:1010F0007F906F905F904F900C947305FF90EF90EE
:10110000DF90CF90BF90AF909F908F907F906F9027
:101110005F904F900895FC0101900020E9F731970E
:10112000AF01481B590BBC0189E692E00C94C50144
:101130008F929F92AF92BF920F931F93CF93DF93A3
:10114000CDB7DEB7A1970FB6F894DEBF0FBECDBF07
:1011500019A2423008F44AE08E010F5D1F4F842E21
:10116000912CB12CA12CA50194010E94AD0EE62F6B
:10117000B901CA01EA30F4F4E05DD801EE938D01C3
:10118000232B242B252B79F790E080E0109719F082
:10119000CD010E948B08A1960FB6F894DEBF0FBE5A
:1011A000CDBFDF91CF911F910F91BF90AF909F90D6
:1011B0008F900895E95CE1CFCF92DF92EF92FF929A
:1011C000CF93DF936B017C016DE289E692E00E9490
:1011D0006502EC0166277727CB016C197D098E0922
:1011E0009F094AE00E9498088C0F9D1FDF91CF91C4
:1011F000FF90EF90DF90CF900895CF93DF930E9400
:101200008B08EC018EE491E00E948B088C0F9D1FEF
:10121000DF91CF9108958091C2019091C301009711
:1012200079F481E090E09093C3018093C20161E082
:1012300086E093E00E944C0381E591E00C94FD0868
:10124000019799F520E030E0A90160913203709197
:10125000330380913403909135030E944B0F811129
:101260002BC040912E0350912F0360913003709159
:10127000310380912A0390912B03A0912C03B0910C
:101280002D03481759076A077B07B1F482E090E005
:101290009093C3018093C20162E086E093E00E94D4
:1012A0004C0381E691E00E94FD0881E090E090937C
:1012B000C3018093C201089568EC70E080E090E083
:1012C0000E945D01BFCFCF93DF9385ED8093BC007B
:1012D0008091E6019091E701A091E801B091E901C8
:1012E0000796A11DB11D23E0B695A7959795879503
:1012F0002A95D1F72091BC0024FD03C010922E0244
:1013000036C04091E6015091E7016091E80170918B
:10131000E901452B462B472B69F30097A105B10541
:1013200041F02AE22A95F1F700C00197A109B1091D
:10133000E1CF8091E50191E09093E4018823B9F039
:10134000C091B800D091BA008091BC008A7B809394
:10135000BC0060E082E10E94D90060E083E10E946D
:10136000D9000E94F902D093BA00C093B800DF916F
:10137000CF9108950C9429128F929F92AF92BF92B1
:10138000CF92DF92EF92FF9286E093E00E942703D4
:10139000C0901603D0901703E0901803F090190343
:1013A0004C01990FAA08BB08209112033091130336
:1013B00040911403509115032C193D094E095F0902
:1013C000C501B40161587F4F8F4F9F4F0E94771125
:1013D0002EEF30E040E050E00E94830EC20ED31E9C
:1013E000E41EF51E8FE691E00E94FD08B7FE1EC0C8
:1013F000C501B4010E94DC088EE491E00E948B08D4
:1014000088E791E00E94FD08F7FE16C0C701B6010B
:101410000E94DC08C701B601FF90EF90DF90CF90EB
:10142000BF90AF909F908F900C94D9074AE0C50170
:10143000B4010E949808E0CF4AE0C701B6010E94BB
:101440009808E8CF1F920F920FB60F9211242F9396
:101450003F938F939F93AF93BF938091610290913D
:101460006202A0916302B09164023091600223E0B5
:10147000230F2D3758F50196A11DB11D2093600251
:101480008093610290936202A0936302B09364021E
:101490008091650290916602A0916702B091680206
:1014A0000196A11DB11D8093650290936602A093E1
:1014B0006702B0936802BF91AF919F918F913F9166
:1014C0002F910F900FBE0F901F90189526E8230FB5
:1014D0000296A11DB11DD2CF1F920F920FB60F928F
:1014E00011242F933F934F935F936F937F938F9329
:1014F0009F93AF93BF93EF93FF9389E692E00E948F
:101500004302FF91EF91BF91AF919F918F917F9196
:101510006F915F914F913F912F910F900FBE0F9060
:101520001F9018951F920F920FB60F9211242F93B0
:101530008F939F93EF93FF93E0917902F0917A025A
:101540008081E0917F02F091800282FD1BC090813A
:10155000809182028F5F8F7320918302821741F006
:10156000E0918202F0E0E759FD4F958F809382026F
:10157000FF91EF919F918F912F910F900FBE0F9040
:101580001F9018958081F4CF1F920F920FB60F9283
:1015900011242F933F934F935F936F937F938F9378
:1015A0009F93AF93BF93EF93FF938091B900887F90
:1015B000803609F44AC0F0F5883209F4A7C018F55E
:1015C000803109F49BC0B8F4882309F4F9C088304D
:1015D00009F494C0FF91EF91BF91AF919F918F91CA
:1015E0007F916F915F914F913F912F910F900FBE1F
:1015F0000F901F901895883109F488C0803251F7F8
:1016000080932D0214C0803409F49DC040F48033CF
:10161000B9F38833F9F680932D0285ECB0C080359C
:1016200009F485C0883509F496C0883499F60E947B
:101630006309D0CF883909F48CC038F5883729F090
:1016400050F4883611F0803729F683E080932E021B
:1016500010922C0257C0883809F47BC0803919F0E9
:10166000803809F0B7CF80912C02803208F071C029
:10167000E0912C0281E08E0F80932C028091BB00C0
:10168000F0E0E45FFD4F80833DC0803B39F0E0F443
:10169000803A09F479C0883A09F09CCF84E08093BD
:1016A0002E0210920B0210920A02E0915602F09163
:1016B0005702099580910A0281110FC081E0809341
:1016C0000A021092EA0109C0803C09F4A6CF883CC6
:1016D00009F4A3CF883B09F07DCFE0910B0281E0B4
:1016E0008E0F80930B02F0E0E651FE4F80818093D5
:1016F000BB0090910B0280910A0229C08091530295
:101700008093BB0085EC8093BC0064CF9091520223
:1017100080915102981758F5E091520281E08E0FA6
:1017200080935202F0E0EF5CFD4F8081E9CFE091C1
:10173000520281E08E0F809352028091BB00F0E054
:10174000EF5CFD4F80839091520280915102981777
:10175000C8F285E8D8CFE091520281E08E0F8093E5
:1017600052028091BB00F0E0EF5CFD4F80838091DE
:10177000300281115CCF81E080932F0284EA809354
:10178000BC0010922E0226CF85EC8093BC001092F4
:101790002E0280912C02803230F4E0912C02F0E095
:1017A000E45FFD4F108260912C0270E0E0915402E2
:1017B000F09155028CE092E0099510922C020ACF2C
:1017C00010922D0234CFE9E6F2E01382128288EE05
:1017D00093E0A0E0B0E084839583A683B7832EE0F6
:1017E00031E03183208325EC30E03587248724ECF9
:1017F00030E03787268720EC30E0318B208B21ECDE
:1018000030E0338B228B22EC30E0358B248B26ECBE
:1018100030E0378B268B118E128E138E148EE6E0FD
:10182000F3E01382128284839583A683B78380E2D8
:1018300091E091838083EAE1F3E082E391E0918398
:10184000808381E08783108A118A128A138A148A1E
:10185000158A168A178A108E118E128E138E148E88
:10186000158E168E178E10A211A212A213A280E05E
:1018700090E0A0E8BFE384A395A3A6A3B7A3138237
:1018800014821582168221E030E035A724A72FEFBD
:1018900027A710A611A612A613A625E0208734E0DC
:1018A00031873287238716A614AA15AA16AA17AA63
:1018B00010AE11AE12AE13AE14AE15AE16AE17AE1C
:1018C00080935A0390935B03A0935C03B0935D03F2
:1018D00012821486158616861786CF010E94600331
:1018E00060E070E080E89FE30E94FC0760E070E049
:1018F00080E89FE30E94CC0686E59FEFAFEFBFEF45
:101900008093160390931703A0931803B0931903C1
:1019100088EC90E0A0E0B0E0809312039093130372
:10192000A0931403B09315030895789484B582604E
:1019300084BD84B5816084BD85B5826085BD85B573
:10194000816085BD80916E00816080936E001092F1
:10195000810080918100826080938100809181006C
:1019600081608093810080918000816080938000FD
:101970008091B10084608093B1008091B00081605B
:101980008093B00080917A00846080937A00809187
:101990007A00826080937A0080917A0081608093DF
:1019A0007A0080917A00806880937A001092C1005A
:1019B000E0917902F0917A0282E08083E0917502F1
:1019C000F09176021082E0917702F09178028FEC2C
:1019D000808310928102E0917D02F0917E0286E088
:1019E0008083E0917B02F0917C0280818061808322
:1019F000E0917B02F0917C02808188608083E0919D
:101A00007B02F0917C02808180688083E0917B0280
:101A1000F0917C0280818F7D808362E08CE00E9467
:101A2000070168EE73E080E090E00E945D0160E0F5
:101A300070E088EC92E40E94CC0660E070E088ECF4
:101A400092E40E94FC0787E891E00E948B080E94C4
:101A5000B500892BB9F1C0900001D0900101E09050
:101A60000201F090030180912E0390912F03A09129
:101A70003003B0913103C816D906EA06FB0661F0BF
:101A8000C0922E03D0922F03E0923003F0923103E4
:101A90008AE193E00E94730581E0C81AD108E10849
:101AA000F108C0920001D0920101E0920201F0928F
:101AB00003010E94480765E070E080E090E00E942A
:101AC0005D01C5CF10922A0310922B0310922C03B4
:101AD00010922D0310922E0310922F0310923003B8
:101AE0001092310310924E0310924F031092500344
:101AF0001092510310921D0310921E0310921F03A7
:101B00001092200310923203109233031092340388
:101B10001092350360E070E088EC92E40E94CC06FD
:101B200060E070E088EC92E40E94FC0781E090E0C5
:101B3000A0E0B0E08093000190930101A093020126
:101B4000B09303010E94B500892BE9F58091000153
:101B500090910101A0910201B091030140912E03E7
:101B600050912F03609130037091310384179507D2
:101B7000A607B70761F080932E0390932F03A093DD
:101B80003003B09331038AE193E00E9473050E9411
:101B900048078091000190910101A0910201B0914C
:101BA00003010196A11DB11D8093000190930101D5
:101BB000A0930201B093030165E070E080E090E043
:101BC0000E945D01BFCF10922A0310922B03109246
:101BD0002C0310922D0310922E0310922F031092BB
:101BE00030031092310310924E0310924F03109263
:101BF00050031092510310921D0310921E03109275
:101C00001F0310922003109232031092330310929C
:101C100034031092350368EC70E080E090E00E949D
:101C2000D90710922A0310922B0310922C031092C2
:101C30002D0310922E0310922F0310923003109256
:101C4000310310924E0310924F03109250031092E2
:101C5000510310921D0310921E0310921F03109245
:101C60002003109232031092330310923403109227
:101C7000350380EB91E00E94FD0880E591E00E9431
:101C8000FD0860E070E08AE794E40E94CC0660E022
:101C900070E08AE794E40E94FC0710925B021092C5
:101CA0005A0210925902109258020E94F9028FE8CB
:101CB00091E090935702809356028BE991E09093C4
:101CC00055028093540280E18093BA008BE099E042
:101CD00090935D0280935C028CEB99E090935F029D
:101CE00080935E02C0E0D0E068EC70E080E090E0BD
:101CF0000E945D012097C1F30E942F028823A1F367
:101D00000E940000F1CF052E97FB1EF400940E9464
:101D10009A0E57FD07D00E94AD0E07FC03D04EF47B
:101D20000C949A0E50954095309521953F4F4F4F0A
:101D30005F4F089590958095709561957F4F8F4F77
:101D40009F4F08950E94CF0EA59F900DB49F900DB8
:101D5000A49F800D911D11240895A1E21A2EAA1BA3
:101D6000BB1BFD010DC0AA1FBB1FEE1FFF1FA2174B
:101D7000B307E407F50720F0A21BB30BE40BF50B48
:101D8000661F771F881F991F1A9469F760957095D1
:101D9000809590959B01AC01BD01CF010895A29F54
:101DA000B001B39FC001A39F700D811D1124911D2F
:101DB000B29F700D811D1124911D08955058BB27AD
:101DC000AA270E94F60E0C9470100E94621038F040
:101DD0000E94691020F039F49F3F19F426F40C9406
:101DE0005F100EF4E095E7FB0C945910E92F0E9468
:101DF000811058F3BA17620773078407950720F01C
:101E000079F4A6F50C94A3100EF4E0950B2EBA2FDE
:101E1000A02D0B01B90190010C01CA01A0011124F0
:101E2000FF27591B99F0593F50F4503E68F11A169C
:101E3000F040A22F232F342F4427585FF3CF46952D
:101E400037952795A795F0405395C9F77EF41F164F
:101E5000BA0B620B730B840BBAF09150A1F0FF0F19
:101E6000BB1F661F771F881FC2F70EC0BA0F621F05
:101E7000731F841F48F4879577956795B795F795F5
:101E80009E3F08F0B0CF9395880F08F09927EE0F8A
:101E90009795879508950E94351008F481E008957C
:101EA0000E94640F0C9470100E94691058F00E94F8
:101EB000621040F029F45F3F29F00C945910511141
:101EC0000C94A4100C945F100E94811068F3992365
:101ED000B1F3552391F3951B550BBB27AA27621726
:101EE0007307840738F09F5F5F4F220F331F441F33
:101EF000AA1FA9F335D00E2E3AF0E0E832D0915067
:101F00005040E695001CCAF72BD0FE2F29D0660F53
:101F1000771F881FBB1F261737074807AB07B0E896
:101F200009F0BB0B802DBF01FF2793585F4F3AF09C
:101F30009E3F510578F00C9459100C94A4105F3F0B
:101F4000E4F3983ED4F3869577956795B795F79522
:101F50009F5FC9F7880F911D9695879597F908950A
:101F6000E1E0660F771F881FBB1F621773078407A6
:101F7000BA0720F0621B730B840BBA0BEE1F88F7B5
:101F8000E09508950E94C90F6894B1110C94A410B3
:101F900008950E94891088F09F5798F0B92F9927CB
:101FA000B751B0F0E1F0660F771F881F991F1AF044
:101FB000BA95C9F714C0B13091F00E94A310B1E0F6
:101FC00008950C94A310672F782F8827B85F39F0F5
:101FD000B93FCCF3869577956795B395D9F73EF4DD
:101FE00090958095709561957F4F8F4F9F4F089585
:101FF000E89409C097FB3EF49095809570956195A3
:102000007F4F8F4F9F4F9923A9F0F92F96E9BB2758
:102010009395F695879577956795B795F111F8CFD4
:10202000FAF4BB0F11F460FF1BC06F5F7F4F8F4F3F
:102030009F4F16C0882311F096E911C0772321F035
:102040009EE8872F762F05C0662371F096E8862FCD
:1020500070E060E02AF09A95660F771F881FDAF724
:10206000880F9695879597F90895990F0008550F51
:10207000AA0BE0E8FEEF16161706E807F907C0F00E
:1020800012161306E407F50798F0621B730B840B16
:10209000950B39F40A2661F0232B242B252B21F4F0
:1020A00008950A2609F4A140A6958FEF811D811D90
:1020B000089597F99F6780E870E060E008959FEFCA
:1020C00080EC089500240A941616170618060906CF
:1020D000089500240A94121613061406050608959E
:1020E000092E0394000C11F4882352F0BB0F40F426
:1020F000BF2B11F460FF04C06F5F7F4F8F4F9F4F66
:10210000089557FD9058440F551F59F05F3F71F0E7
:102110004795880F97FB991F61F09F3F79F087954E
:102120000895121613061406551FF2CF4695F1DFD7
:1021300008C0161617061806991FF1CF8695710567
:10214000610508940895E894BB2766277727CB019B
:1021500097F908950E94351008F48FEF08950E94B2
:10216000C2100C9470100E94621038F00E94691026
:1021700020F0952311F00C9459100C945F10112449
:102180000C94A4100E94811070F3959FC1F3950FD9
:1021900050E0551F629FF001729FBB27F00DB11DEB
:1021A000639FAA27F00DB11DAA1F649F6627B00D7B
:1021B000A11D661F829F2227B00DA11D621F739F64
:1021C000B00DA11D621F839FA00D611D221F749F72
:1021D0003327A00D611D231F849F600D211D822FB9
:1021E000762F6A2F11249F5750409AF0F1F08823E0
:1021F0004AF0EE0FFF1FBB1F661F771F881F91500D
:102200005040A9F79E3F510580F00C9459100C9452
:10221000A4105F3FE4F3983ED4F3869577956795D5
:10222000B795F795E7959F5FC1F7FE2B880F911D36
:102230009695879597F9089519F416F40C945F1004
:102240000C9462110E948910B8F39923C9F3B6F374
:102250009F57550B87FF0E9470110024A0E640EAAB
:10226000900180585695979528F4805C660F771FEB
:10227000881F20F026173707480730F4621B730BBE
:10228000840B202931294A2BA695179407942025E1
:1022900031254A2758F7660F771F881F20F0261729
:1022A0003707480730F4620B730B840B200D311D88
:1022B000411DA09581F7B901842F9158880F9695FB
:1022C000879508959F3F31F0915020F48795779539
:1022D0006795B795880F911D9695879597F90895FD
:1022E00091505040660F771F881FD2F70895DB0189
:1022F0008F939F930E94A20EBF91AF91A29F800DDA
:10230000911DA39F900DB29F900D11240895EE0F83
:10231000FF1F0590F491E02D09940F931F93CF9325
:10232000DF938230910510F482E090E0E091600349
:10233000F091610330E020E0B0E0A0E0309799F444
:102340002115310509F44AC0281B390B2430310509
:10235000D8F58A819B816115710589F1FB01938311
:102360008283FE0111C0408151810281138148178F
:102370005907E0F04817590799F4109761F0129641
:102380000C93129713961C933296CF01DF91CF9145
:102390001F910F9108950093600310936103F4CF90
:1023A0002115310551F04217530738F0A901DB011F
:1023B0009A01BD01DF01F801C1CFEF01F9CF909380
:1023C000610380936003CDCFFE01E20FF31F819381
:1023D00091932250310939832883D7CF20915E030E
:1023E00030915F03232B41F42091060130910701C6
:1023F00030935F0320935E03209104013091050127
:102400002115310541F42DB73EB740910801509197
:102410000901241B350BE0915E03F0915F03E21785
:10242000F307A0F42E1B3F0B2817390778F0AC01F7
:102430004E5F5F4F2417350748F04E0F5F1F5093D4
:102440005F0340935E03819391939FCFF0E0E0E0C0
:102450009CCFCF93DF930097E9F0FC013297138272
:102460001282A0916003B0916103ED0130E020E0A1
:102470001097A1F420813181820F931F20915E0378
:1024800030915F032817390709F061C0F0935F03AB
:10249000E0935E03DF91CF910895EA01CE17DF0745
:1024A000E8F54A815B819E0141155105B1F7E901CB
:1024B000FB83EA8349915991C40FD51FEC17FD079F
:1024C00061F4808191810296840F951FE9019983BF
:1024D0008883828193819B838A83F0E0E0E0129677
:1024E0008D919C9113970097B9F52D913C9111977F
:1024F000CD010296820F931F20915E0330915F03FE
:102500002817390739F6309751F510926103109268
:102510006003B0935F03A0935E03BCCFD383C283F9
:1025200040815181840F951FC817D90761F44E5F10
:102530005F4F88819981480F591F518340838A8159
:102540009B81938382832115310509F0B0CFF093ED
:102550006103E09360039ECFFD01DC01C0CF1382D5
:082560001282D7CFF894FFCFDF
:10256800FFFFFFFF0000620380000000000065021B
:10257800C501F201B20223020102150200000000A7
:102588004C0341035D0317033A03270318030000B4
:10259800000094036003FB07BA097305F5043305CB
:1025A800DF04AD048C0458043704E103B2030D0AB8
:1025B800004C61756E636820656E766961646F2191
:1025C800006C6973746F20656E766961646F005280
:1025D8006563696269646F005472616E73666F72D5
:1025E8006D61646F20610053746570706572206955
:1025F8007320486F6D696E67202E202E202E202EA6
:10260800202E202E202E202E202E202E202E200080
:10261800486F6D696E6720436F6D706C6574656493
:022628000000B0
:00000001FF
